:020000040000FA
:0400000031EF01F0EB
:020004000000FA
:020006001000E8
:0400080044EF01F0D0
:0400180003EF00F002
:04001C008194085073
:100020002009036E2AEC01F00750036E2AEC01F060
:10003000818412008194E20E036E2AEC01F0818427
:100040001200819408502009036E2AEC01F0095037
:10005000036E2AEC01F00A50036E2AEC01F00B50FB
:10006000036E2AEC01F00C50036E2AEC01F00D50E7
:10007000036E2AEC01F0818412008194085020095B
:10008000036E2AEC01F00950036E2AEC01F00A50CD
:10009000036E2AEC01F0818412001AEC00F0A051EA
:1000A000086E3DEC00F0700E076E0750086E0EEC07
:1000B00000F0020E076E0050086E0EEC00F0818614
:1000C0000FEC01F0819612001AEC00F0700E076E32
:1000D0000750086E0EEC00F0030E076E0050086E1D
:1000E0000EEC00F081861200819408502009036E06
:1000F0002AEC01F023EC01F0818412008194610E5E
:10010000036E2AEC01F023EC01F004C009F023ECAB
:1001100001F004C00AF08184700E076E0750086E6B
:100120000EEC00F01AEC00F01200070E086E74ECF2
:1001300000F004BCFAD712009394939681848196C0
:10014000FFEC00F0020E076E000E086E0EEC00F0E1
:1001500007EC01F0000E076E010E086E0EEC00F0C9
:10016000010E076E020E086E0EEC00F0030E076E15
:10017000030E086E0EEC00F0000E076E040E086E03
:100180000EEC00F0400E076E050E086E0EEC00F04F
:10019000260E076E060E086E0EEC00F00A0E086EB4
:1001A000050E096E040E0A6E030E0B6E020E0C6E27
:1001B000010E0D6E21EC00F0100E086E21EC00F027
:1001C000020E076E110E086E0EEC00F00FEC01F03F
:0A01D00064EC00F00FEC01F01200E7
:0601DA00D56AD59CD59A00
:1001E000D596D584D592D5901200D5BEFED71200F3
:1001F000D59E05C0D6FF06C0D7FFD58E1200E70EEC
:10020000066E950E056EF8EC00F0F5EF00F0FD0EB1
:10021000066E8E0E056EF8EC00F0F5EF00F0FF0EA6
:0E022000066EC00E056EF8EC00F0F5EF00F073
:02022E009380BB
:10023000949E9392929AC00EC76E200EC66E1200C4
:10024000DF0EC6161200000EC96EC7A0FED7C95039
:10025000046E12009E96C95003C0C9FFC7A0FED706
:0202600012008A
:0E026200720ED36E9E6AF26A9D6AF28EF28A66
:10027000EDEC00F017EC01F09CEC00F095EC00F0D8
:080280007EEC00F03EEF01F0FE
:08028800006ED8CF01F0E0CFB9
:1002900002F0F2A402D0F294D59E005001C0D8FF23
:0602A00002C0E0FF1000A7
:020000040030CA
:0100000003FC
:0100010048B6
:0100020018E5
:010003001EDE
:010005008179
:010006008178
:010008000FE8
:01000900C036
:01000A000FE6
:01000B00E014
:01000C000FE4
:01000D0040B2
:00000001FF
