:020000040000FA
:0400000017EF01F005
:020004000000FA
:020006001000E8
:0400080060EF01F0B4
:0400180003EF00F002
:04001C008194085073
:100020002009036E45EC01F00750036E45EC01F02A
:10003000818412008194E20E036E45EC01F081840C
:100040001200819408502009036E45EC01F009501C
:10005000036E45EC01F00A50036E45EC01F00B50C5
:10006000036E45EC01F00C50036E45EC01F00D50B1
:10007000036E45EC01F08184120081940850200940
:10008000036E45EC01F00950036E45EC01F00A5097
:10009000036E45EC01F0818412001AEC00F0A00E12
:1000A000086E3DEC00F0700E076E070E086E0EEC49
:1000B00000F0020E076E000E086E0EEC00F0818656
:1000C0000FEC01F0819612001AEC00F0700E076E32
:1000D000070E086E0EEC00F0030E076E000E086EA1
:1000E0000EEC00F081861200819408500009036E26
:1000F00045EC01F03EEC01F0818412008194610E28
:10010000036E45EC01F03EEC01F004C009F03EEC5A
:1001100001F004C00AF08184700E076E070E086EAD
:100120000EEC00F01AEC00F01200070E086E74ECF2
:1001300000F004ACFAD712009394939681848196D0
:10014000FFEC00F0020E076E000E086E0EEC00F0E1
:1001500007EC01F0000E076E010E086E0EEC00F0C9
:10016000010E076E020E086E0EEC00F0030E076E15
:10017000030E086E0EEC00F0000E076E040E086E03
:100180000EEC00F0400E076E050E086E0EEC00F04F
:10019000260E076E060E086E0EEC00F00A0E086EB4
:1001A000050E096E040E0A6E030E0B6E020E0C6E27
:1001B000010E0D6E21EC00F0100E086E21EC00F027
:1001C000020E076E110E086E0EEC00F00FEC01F03F
:0A01D00064EC00F00FEC01F01200E7
:0601DA00D56AD59CD59A00
:1001E000D596D584D592D5901200D5BEFED71200F3
:1001F000D59E05C0D6FF06C0D7FFD58E1200E70EEC
:10020000066E950E056EF8EC00F0F5EF00F0FD0EB1
:10021000066E8E0E056EF8EC00F0F5EF00F0FF0EA6
:0E022000066EC00E056EF8EC00F0F5EF00F073
:02022E00720E4E
:10023000D36E946A826A9E6AF26A9D6AF28EF28A2C
:100240005AEC01F0EDEC00F032EC01F09CEC00F027
:1002500095EC00F07EEC00F04CEC01F0FFEC00F0CF
:0402600028EF01F092
:0C0264009380949E9392929AC00EC76EF5
:10027000200EC66E1200DF0EC6161200000EC96EEA
:10028000C7A0FED7C950046E12009E96C95003C085
:08029000C9FFC7A0FED7120050
:08029800CA94CC6AFF0ECB6E84
:1002A0000A50BE6E094209420950BD6EBD84BD862A
:1002B000CA841200C00E096E0A6E4CEC01F01200E6
:1002C000006ED8CF01F0E0CF02F0F2A402D0F29499
:0E02D000D59E005001C0D8FF02C0E0FF100014
:020000040030CA
:0100000003FC
:0100010048B6
:0100020018E5
:010003001EDE
:010005008179
:010006008178
:010008000FE8
:01000900C036
:01000A000FE6
:01000B00E014
:01000C000FE4
:01000D0040B2
:00000001FF
