:020000040000FA
:0400000030EF01F0EC
:020004000000FA
:020008001000E6
:020018001000D6
:06001A008194085020094A
:10002000036E29EC01F00750036E29EC01F0818486
:1000300012008194E20E036E29EC01F0818412001B
:10004000819408502009036E29EC01F00950036ED9
:1000500029EC01F00A50036E29EC01F00B50036EFD
:1000600029EC01F00C50036E29EC01F00D50036EE9
:1000700029EC01F081841200819408502009036E5C
:1000800029EC01F00950036E29EC01F00A50036ECF
:1000900029EC01F08184120019EC00F0A051086EE7
:1000A0003CEC00F0700E076E0750086E0DEC00F08F
:1000B000020E076E0050086E0DEC00F081860EEC0B
:1000C00001F08196120019EC00F0700E076E0750D7
:1000D000086E0DEC00F0030E076E0050086E0DEC7C
:1000E00000F081861200819408502009036E29ECEB
:1000F00001F022EC01F0818412008194610E036E04
:1001000029EC01F022EC01F004C009F022EC01F02E
:1001100004C00AF08184700E076E0750086E0DEC63
:1001200000F019EC00F01200070E086E73EC00F0FE
:1001300004BCFAD712009394939681848196FEECC6
:1001400000F0020E076E000E086E0DEC00F006ECDB
:1001500001F0000E076E010E086E0DEC00F0010EAE
:10016000076E020E086E0DEC00F0030E076E030E14
:10017000086E0DEC00F0000E076E040E086E0DEC1C
:1001800000F0400E076E050E086E0DEC00F0260E16
:10019000076E060E086E0DEC00F00A0E086E050ED6
:1001A000096E040E0A6E030E0B6E020E0C6E010E2B
:1001B0000D6E20EC00F0100E086E20EC00F0020E28
:1001C000076E110E086E0DEC00F00EEC01F063EC02
:0801D00000F00EEC01F012003A
:0801D800D56AD59CD59AD59695
:1001E000D584D592D5901200D5BEFED71200D59EEB
:1001F00005C0D6FF06C0D7FFD58E1200E70E066EEB
:10020000950E056EF7EC00F0F4EF00F0FD0E066EB3
:100210008E0E056EF7EC00F0F4EF00F0FF0E066EA8
:0C022000C00E056EF7EC00F0F4EF00F0EB
:04022C009380949E89
:100230009392929AC00EC76E200EC66E1200DF0E09
:10024000C6161200000EC96EC7A0FED7C950046EB4
:1002500012009E96C95003C0C9FFC7A0FED7120066
:10026000720ED36EECEC00F016EC01F09BEC00F09B
:0C02700094EC00F07DEC00F038EF01F0A1
:020000040030CA
:0100000003FC
:0100010048B6
:0100020018E5
:010003001EDE
:010005008179
:010006008178
:010008000FE8
:01000900C036
:01000A000FE6
:01000B00E014
:01000C000FE4
:01000D0040B2
:00000001FF
